:020000040800F2
:1000000000200020391F0008891F0008891F0008F0
:1000100000000000000000000000000000000000E0
:10002000000000000000000000000000891F000820
:100030000000000000000000891F0008891F000860
:10004000891F0008891F0008891F0008891F0008F0
:10005000891F0008891F0008891F0008891F0008E0
:10006000891F0008891F0008891F0008891F0008D0
:10007000891F0008891F0008891F0008891F0008C0
:10008000891F0008891F0008891F0008891F0008B0
:10009000891F0008891F0008891F0008891F0008A0
:1000A000891F0008891F0008891F0008891F000890
:1000B000891F0008891F0008891F0008891F000880
:1000C00080B500AF154BC221180000F03DF8134B6E
:1000D000C221180000F082F8104B4021180000F0F7
:1000E000A1F80E4B8021180000F08AF80C4B180084
:1000F00000F01AF8094B0221180000F081F8084BB3
:10010000180000F011F8054B8221180000F066F885
:10011000044B180000F008F8C046DDE7000C014071
:10012000FFFF0F00FF8F000080B582B000AF786046
:1001300002E07B68013B7B607B68002BF9D1C04605
:10014000C046BD4602B080BD90B589B000AF7860B2
:100150000A00BB1C1A807B681C4A934204D101210F
:10016000042000F057FF19E07B68194A934204D13C
:100170000121082000F04EFF10E07B68154A9342F1
:1001800004D10121102000F045FF07E07B68124AEE
:10019000934216D10121802000F03CFF08243B1936
:1001A000180001F095FBBB1C1A883B191A603B191B
:1001B00001225A603A197B681100180001F0F7F922
:1001C00000E0C046BD4609B090BDC04600080140F1
:1001D000000C014000100140001C014080B582B0BD
:1001E00000AF78600A00BB1C1A80BB1C1A887B68B1
:1001F0001100180001F0DEFBC046BD4602B080BD14
:1002000080B582B000AF78600A00BB1C1A80BB1CAE
:100210001A887B681100180001F0DBFBC046BD4660
:1002200002B080BD80B582B000AF78600A00BB1C10
:100230001A80BB1C1A887B681100180001F004FCAE
:10024000C046BD4602B080BD80B500AF184B1A68ED
:10025000174B01210A431A60154B5A68144B154974
:100260000A405A60124B1A68114B13490A401A602F
:100270000F4B1A680E4B11490A401A600C4B5A6812
:100280000B4B0F490A405A60094BE0229201DA6297
:10029000074BBF2212049A600A4B1A68094B1021BF
:1002A0000A431A6000F0CCF8C046BD4680BDC04687
:1002B000001002400000FF21FFFFF6FEFFFFBFFF1E
:1002C000FFFF00FE0020024080B586B000AF002393
:1002D0007B6100233B610023FB600023BB600023A4
:1002E0007B60504B5B68504A13407B617A69802386
:1002F0001B029A4200D17BE07A6980231B029A425A
:1003000000D979E07B69494A93426CD07B69474ABE
:10031000934200D970E07A698023DB019A4213D0BE
:100320007A698023DB019A4266D87B69002B03D06F
:100330007B69082B04D05FE03D4B3E4A1A605FE0CA
:100340003B4B3C4A1A605BE0364B5A68F0231B0378
:1003500013403B61334B5A68C0239B031340FB603F
:10036000304B5A68C0231B041340BB603B691B0C15
:1003700003333B617B681B0E0CD139690A005201C3
:10038000521A93019B1ADB005B185B021A00284B80
:100390001A600BE039690A005201521A93019B1A44
:1003A000DB005B185B021A00214B1A60FB681B0D17
:1003B0000133FB601E4B1B68F968180001F0A8FCB4
:1003C00003001A001A4B1A60BB689B0D0133BB6017
:1003D000174B1B68B968180001F09AFC03001A005B
:1003E000134B1A600CE0124B802212021A6007E0D5
:1003F0000F4B114A1A6003E00D4B0E4A1A60C046BB
:10040000084B5B681B090F2213400C4AD35C7B61CD
:10041000074B1A687B69DA40054B1A60C046BD4637
:1004200006B080BD0010024008C000000840000077
:100430000000002000127A0030750000BC1F000888
:1004400080B584B000AF0023BB600023FB60FB1DC0
:1004500000221A703E4B1A683D4B01210A431A6074
:100460003B4B1B6802221A40FB1D511E8A411A7029
:10047000FB680133FB60FB1D1B7801225340DBB29C
:10048000002B04D0FA68A023DB009A42E8D1304B5D
:100490001B6802221A40FB1D511E8A411A70FB1D67
:1004A0001B7801225340DBB2002B01D0C046FDE790
:1004B000284B1A68274B03218A431A60254B1A6878
:1004C000244B02210A431A60214A214B52685A6088
:1004D0001F4B5A681E4B20490A405A601C4B5A68F1
:1004E0001B4B1E490A405A60194B5B68BB60BB68D6
:1004F000C02292021343BB60154BBA685A60144B7A
:100500001A68134B802149040A431A60C046104BF5
:100510001A6880239B041340F9D00D4B5A680C4B8A
:1005200007218A435A600A4B5A68094B02210A4341
:100530005A60C046064B5B68094A1A408023DB01BB
:100540009A42F7D1C046C046BD4604B080BDC04601
:100550000010024000200240FFFF3FFFFFFFC0FEEF
:1005600008C0000080B500AF144B1A68134B01217E
:100570000A431A60114B5A68104B11490A405A60DD
:100580000E4B1A680D4B0F490A401A600B4B1A6844
:100590000A4B0D490A401A60084B5A68074B0B4931
:1005A0000A405A60054BE0229201DA62034BBF22F7
:1005B00012049A60C046BD4680BDC046001002408D
:1005C0000000FF21FFFFF6FEFFFFBFFFFFFF00FE61
:1005D00080B582B000AF7860154B1A68144B15498E
:1005E0000A401A60124B1A68114B13490A401A60EC
:1005F0007A6880235B029A4205D07A688023DB0206
:100600009A4208D00FE00A4B1A68094B8021490230
:100610000A431A6007E0064B1A68054BA021C9027D
:100620000A431A60C046C046BD4602B080BDC046FF
:1006300000100240FFFFFEFFFFFFFBFF90B583B0FD
:1006400000AF00233B60FB1D00221A70BB1D00227F
:100650001A70BC1D312000F0D7FD030023703B68E9
:1006600001333B603A6880239B019A4203D0BB1D53
:100670001B78002BEDD0312000F0C6FD031E03D007
:10068000FB1D01221A7002E0FB1D00221A70FB1DE7
:100690001B781800BD4603B090BD80B582B000AF96
:1006A00078600A4B1A68094B01218A431A607B68FB
:1006B000012B06D1054B1A68044B01210A431A602D
:1006C00000E0C046C046BD4602B080BD00100240FA
:1006D00090B583B000AF00233B60FB1D00221A7071
:1006E000BB1D00221A70BC1D212000F08DFD0300EF
:1006F00023703B6801333B603A68A023DB009A42D9
:1007000003D0BB1D1B78002BEDD0212000F07CFD19
:10071000031E03D0FB1D01221A7002E0FB1D002204
:100720001A70FB1D1B781800BD4603B090BD80B544
:1007300084B000AF0200FB1D1A700023FB600A4B5F
:100740001B68FB60FB68F8229343FB60FB1D1B7872
:10075000DB00FA681343FB60034BFA681A60C0467B
:10076000BD4604B080BDC0460010024080B582B0D6
:1007700000AF0200FB1D1A70FB1D1B78012B06D178
:10078000084B1A68074B01210A431A6005E0054B24
:100790001A68044B01218A431A60C046BD4602B064
:1007A00080BDC0460010024080B586B000AFF86042
:1007B000B9607A603B6000237B6100233B611B4B87
:1007C0005A681A4B1A490A405A60184B5B687B6199
:1007D0007B69184A13407B61FB68002B04D0FA68E0
:1007E00080235B049A420AD1FA68BB681A437B688B
:1007F0001A433B6813437A6913437B610EE00B4B4A
:100800001B683B617A693B6813437B613B698022CB
:10081000D20313433B61054B3A691A60034B7A6973
:100820005A60C046BD4606B080BDC04600100240BA
:10083000FFFF3FFFFFFFC0FE80B582B000AF0200A8
:10084000FB1D1A70FB1D1B78012B07D1084B1A6882
:10085000074B802149040A431A6005E0044B1A68DB
:10086000034B04490A401A60C046BD4602B080BD31
:1008700000100240FFFFFFFE80B582B000AF020013
:10088000FB1D1A70FB1D1B78012B07D1084B1A6842
:10089000074B802109040A431A6005E0044B1A68DB
:1008A000034B04490A401A60C046BD4602B080BDF1
:1008B00000100240FFFF7FFF80B584B000AF78607A
:1008C0000023FB60084B5B68FB60FB6807229343D7
:1008D000FB60FA687B681343FB60034BFA685A605D
:1008E000C046BD4604B080BD0010024080B500AFD8
:1008F000034B5B68034A13401800BD4680BDC046E9
:100900000010024008C0000080B584B000AF7860DD
:100910000023FB60084B5B68FB60FB68F02293439D
:10092000FB60FA687B681343FB60034BFA685A600C
:10093000C046BD4604B080BD0010024080B584B002
:1009400000AF78600023FB60084B5B68FB60FB68CE
:10095000074A1340FB60FA687B681343FB60034B54
:10096000FA685A60C046BD4604B080BD001002401F
:10097000FFF8FFFF80B584B000AF78600023FB6014
:10098000094B5B68FB60FB68084A1340FB607B68AF
:10099000DB00FA681343FB60034BFA685A60C046F9
:1009A000BD4604B080BDC04600100240FFC7FFFF37
:1009B00080B582B000AF0200FB1D1A70BB1D0A1C7F
:1009C0001A70BB1D1B78002B08D00B4B1968FB1D40
:1009D0001B781A02084B0A431A6008E0064B1A6893
:1009E000FB1D1B781B02D943034B0A401A60C0460B
:1009F000BD4602B080BDC0460810024080B584B03C
:100A000000AF78600023FB60084BDB6AFB60FB688B
:100A10005B005B08FB60FA687B681343FB60034B79
:100A2000FA68DA62C046BD4604B080BD00100240DC
:100A300080B584B000AF786039600023FB600D4B57
:100A4000DB6AFB60FB680C4A1340FB60FB680B4AE7
:100A50001340FB60FA687B681343FB60FA683B68ED
:100A60001343FB60034BFA68DA62C046BD4604B02C
:100A700080BDC04600100240FFFBFFFFFF07FFFFE5
:100A800080B584B000AF78600A00FB1C1A700023A8
:100A9000FB600D4BDB6AFB60FB680C4A1340FB609C
:100AA000FB1C1B78002B04D0FA687B681343FB60A7
:100AB00003E0FB68064A1340FB60034BFA68DA6206
:100AC000C046BD4604B080BD001002400FFEFFFFCF
:100AD000FFFEFFFF80B584B000AF78600023FB60AD
:100AE000084BDB6AFB60FB680F229343FB60FA68EC
:100AF0007B681343FB60034BFA68DA62C046BD466D
:100B000004B080BD0010024080B582B000AF7860B4
:100B1000074BDA6A064B07490A40DA62044BD96A86
:100B2000034B7A680A43DA62C046BD4602B080BD14
:100B300000100240FFFF1FFF80B500AF034BDA6AD1
:100B4000E0231B0413401800BD4680BD0010024086
:100B500080B582B000AF7860084BDA6A074B08496D
:100B60000A40DA62054BD96A7B685A06034B0A438E
:100B7000DA62C046BD4602B080BDC04600100240E9
:100B8000FFFFFFF180B500AF034BDB6A5B0E07226E
:100B900013401800BD4680BD0010024080B584B0EF
:100BA00000AF0200FB1D1A700023FB60104B1B6896
:100BB000FB60FB680F4A1340FB60FB1D1B78032B97
:100BC00003D9FB1D03221A7005E0FB1DFA1D1278E4
:100BD00003210A401A70FB1D1B785B02FA6813435D
:100BE000FB60034BFA681A60C046BD4604B080BD86
:100BF00008180040FFF9FFFF80B582B000AF020087
:100C0000FB1D1A70BB1D0A1C1A70124B1A68114B7F
:100C100014218A431A60FB1D1B78042B02D0102B71
:100C20000CD012E00B4B1A680A4B04210A431A60DD
:100C3000BB1D1B781800FFF7B1FF06E0054B1A68D3
:100C4000044B10210A431A60C046C046BD4602B09C
:100C500080BDC0462010024080B582B000AF0200C7
:100C6000FB1D1A70FB1D1B78012B06D1084B1A685F
:100C7000074B01210A431A6005E0054B1A68044B33
:100C800001218A431A60C046BD4602B080BDC046FD
:100C90002010024080B582B000AF7860074B1A6A1E
:100CA000064B60218A431A62044B196A034B7A6827
:100CB0000A431A62C046BD4602B080BD0010024021
:100CC00080B500AF034B1B6A602213401800BD467D
:100CD00080BDC0460010024080B582B000AF020067
:100CE000FB1D1A70FB1D1B78012B06D1084B1A68DF
:100CF000074B80210A431A6005E0054B1A68044B34
:100D000080218A431A60C046BD4602B080BDC046FD
:100D10002010024080B582B000AF0200FB1D1A70A7
:100D2000FB1D1B78002B07D0084B1A6A074B80214C
:100D300049000A431A6205E0044B1A6A034B04494E
:100D40000A401A62C046BD4602B080BD0010024093
:100D5000FFFEFFFF80B582B000AF7860074B1A6AD4
:100D6000064B07490A401A62044B196A034B7A681A
:100D70000A431A62C046BD4602B080BD0010024060
:100D8000FFFDFFFF80B500AF034B1A6A80239B0075
:100D900013401800BD4680BD0010024080B58AB0E7
:100DA00000AF786000237B6200233B620023FB617D
:100DB0000023BB6100237B6100233B610023FB60B8
:100DC0007C4B5A68F0231B031340FB61794B5A6834
:100DD000C0239B031340BB61764B5A68C0231B049E
:100DE00013407B61734B5A6880235B0413403B6163
:100DF000FB691B0C0333FB613B691B0E0AD1F969CC
:100E00000A005201521A93019B1ADB005B185B0225
:100E10003B6209E0F9690A005201521A93019B1AD8
:100E2000DB005B185B023B62BB691B0D0133BB61DE
:100E3000B969386A00F06CFF03003B627B699B0D67
:100E400001337B617969386A00F062FF03003B621D
:100E5000584B5B68584A13407B627A6A80231B02B6
:100E60009A422ED07A6A80231B029A422DD87B6A3E
:100E7000524A934220D07B6A504A934225D87A6ADC
:100E80008023DB019A4213D07A6A8023DB019A42E5
:100E90001BD87B6A002B03D07B6A082B04D014E09C
:100EA0007B68474A1A6014E07B68454A1A6010E084
:100EB0007B683A6A1A600CE07B68802212021A6032
:100EC00007E07B683F4A1A6003E07B683C4A1A608F
:100ED000C046384B5B68F02213407B627B6A1B097B
:100EE0007B627B6A072B01D800237B62364A7B6AD0
:100EF000D3181B78FB607B681A68FB68DA407B6854
:100F00005A602C4B5A68E023DB0013407B627B6AFB
:100F10001B0A7B622C4A7B6AD3181B78FB607B68B8
:100F20005A68FB68DA407B689A60224B5A68E02373
:100F30009B0113407B627B6ADB0A7B62224A7B6AED
:100F4000D3181B78FB607B685A68FB68DA407B68C3
:100F5000DA60184BDB6A0F2213407B621B4A7B6A04
:100F6000D3181B78FB607B685B68F968180000F099
:100F7000CFFE03001A007B685A610E4BDA6AF82331
:100F80005B0013407B627B6A1B097B627B6A0F22DA
:100F90001A400F4B5200D35AFB60F968386A00F0D0
:100FA000B7FE03001A007B681A61C046BD460AB04E
:100FB00080BDC0460010024008C00000084000008C
:100FC00000127A0030750000CC1F0008DC1F0008FA
:100FD000EC1F000880B582B000AF78600A00FB1CEF
:100FE0001A70FB1C1B78002B06D0094B5969084B63
:100FF0007A680A435A6106E0054B5A697B68D9430F
:10100000034B0A405A61C046BD4602B080BDC0468F
:101010000010024080B582B000AF78600A00FB1C6F
:101020001A70FB1C1B78002B06D0094B9969084BE2
:101030007A680A439A6106E0054B9A697B68D9434E
:10104000034B0A409A61C046BD4602B080BDC0460F
:101050000010024080B582B000AF78600A00FB1C2F
:101060001A70FB1C1B78002B06D0094BD969084B62
:101070007A680A43DA6106E0054BDA697B68D9438E
:10108000034B0A40DA61C046BD4602B080BDC0468F
:101090000010024080B582B000AF78600A00FB1CEF
:1010A0001A70FB1C1B78002B06D0094B996A084B61
:1010B0007A680A439A6206E0054B9A6A7B68D943CC
:1010C000034B0A409A62C046BD4602B080BDC0468E
:1010D0000010024080B582B000AF78600A00FB1CAF
:1010E0001A70FB1C1B78002B06D0094BD968084BE3
:1010F0007A680A43DA6006E0054BDA687B68D94310
:10110000034B0A40DA60C046BD4602B080BDC0460F
:101110000010024080B582B000AF78600A00FB1C6E
:101120001A70FB1C1B78002B06D0094B1969084B61
:101130007A680A431A6106E0054B1A697B68D9434D
:10114000034B0A401A61C046BD4602B080BDC0468E
:101150000010024080B582B000AF0200FB1D1A7083
:10116000FB1D1B78002B07D0094B1A68084B802108
:1011700009030A431A6006E0054B1968044B8022F4
:1011800012030A401A60C046BD4602B080BDC04688
:101190000010024080B584B000AF78600023FB608F
:1011A000084B5B68FB60FB681B011B09FB60FA686E
:1011B0007B681343FB60034BFA685A60C046BD4628
:1011C00004B080BD0010024080B584B000AF0200C2
:1011D000FB1D1A700023FB60094B5B68FB60FB681A
:1011E000084A1340FB60FB1D1B785B06FA6813433B
:1011F000FB60034BFA685A60C046BD4604B080BD30
:1012000000100240FFFFFFF180B586B000AF020082
:10121000FB1D1A700023FB6000237B611323FB1866
:1012200000221A70FB1D1B785B09DBB2FB60FB68B8
:10123000012B03D1144B1B687B6109E0FB68022B77
:1012400003D1114B1B6A7B6102E00F4B5B6A7B6130
:10125000FB1D1B781F221340FB607A69FB68DA4094
:1012600013000122134004D01323FB1801221A702B
:1012700003E01323FB1800221A701323FB181B78BA
:101280001800BD4606B080BD0010024080B500AF1A
:10129000074B5A6A064B01210A435A62044B5A6AA9
:1012A000034B01218A435A62C046BD4680BDC046F9
:1012B0000010024080B584B000AF0200FB1D1A7020
:1012C0000F217B1800221A700A4B9B68FA1D1278B6
:1012D000134003D07B1801221A7003E00F23FB1880
:1012E00000221A700F23FB181B781800BD4604B0AB
:1012F00080BDC0460010024080B582B000AF78606B
:10130000044B9968034B7A680A439A60C046BD460D
:1013100002B080BD0010024080B582B000AF020074
:10132000FB1D1A70FB1D1B78012B07D1084B9A6817
:10133000074B8021C9010A439A6005E0044B9A6873
:10134000034B04490A409A60C046BD4602B080BDC6
:1013500000100240FFBFFFFF80B582B000AF786091
:101360007B681B4A934208D101210420FFF7B2FE9B
:1013700000210420FFF7AEFE27E07B68154A934268
:1013800008D101210820FFF7A5FE00210820FFF762
:10139000A1FE1AE07B68104A934208D10121102077
:1013A000FFF798FE00211020FFF794FE0DE07B6808
:1013B0000A4A934208D101218020FFF78BFE0021C9
:1013C0008020FFF787FE00E0C046BD4602B080BD2A
:1013D00000080140000C014000100140001C0140C9
:1013E00080B586B000AF7860396000237B61002350
:1013F0003B610023FB60B8E001227B699A403B68B7
:1014000013403B613B69002B00D1ABE07B681A685D
:101410007B695B00032199400B001A437B681A60CB
:101420007B69082213400CD07B685A6A7B690721CC
:101430000B409B000F2199400B001A437B685A62B6
:101440000BE07B681A6A7B6907210B409B000F2128
:1014500099400B001A437B681A627B685B68012124
:101460007A6991400A00D2431A407B685A607B68CF
:10147000DB687A695200032191400A00D2431A4086
:101480007B68DA607B689B6801217A6991400A0079
:101490001A437B689A607B68DB6A01217A69914014
:1014A0000A00D2431A407B68DA62354A7B699B089E
:1014B00002339B009B58FB607B69032213409B0017
:1014C0000F229A40FB681340FB607B682D4A9342D1
:1014D0000DD07B682C4A934207D07B682B4A9342FD
:1014E00001D1022304E0052302E0012300E00023F0
:1014F0007A6903210A40920093401A00FB689A42DD
:1015000030D11F4A7B699B0802339B009A587B6944
:1015100003210B409B000F2199400B00D943184831
:101520007B699B080A4002339B001A50184B1A68CB
:101530003B69D943164B0A401A60154B5A683B6900
:10154000D943134B0A405A60114B9A683B69D943FF
:101550000F4B0A409A600E4BDA683B69D9430C4B3B
:101560000A40DA607B6901337B613A687B69DA4063
:10157000131E00D040E7C046C046BD4606B080BD41
:101580000000014000080140000C01400010014033
:101590000004014080B500AF01210120FFF79AFD52
:1015A00000210120FFF796FDC046BD4680BD80B5F5
:1015B00086B000AF7860396000237B610023FB6058
:1015C00000233B616DE13B681B6801217A69914012
:1015D0000A001340FB60FB68002B00D15EE13B6812
:1015E0005B68022B03D03B685B68122B3CD17B69A4
:1015F000082213401CD07B685B6A3B617B69072231
:1016000013409B000F229A401300DA433B691340BA
:101610003B613B685A697B6907210B409B009A40FC
:1016200013003A6913433B617B683A695A621BE0D5
:101630007B681B6A3B617B69072213409B000F227A
:101640009A401300DA433B6913403B613B685A6997
:101650007B6907210B409B009A4013003A691343B2
:101660003B617B683A691A623B685B68012B0BD06F
:101670003B685B68112B07D03B685B68022B03D08B
:101680003B685B68122B19D17B685B683B61012268
:101690007B699A401300DB431A003B6913403B61AE
:1016A0003B685B681B0901221A407B699A40130062
:1016B0003A6913433B617B683A695A607B681B68EF
:1016C0003B617B695B0003229A401300DA433B696C
:1016D00013403B613B685B6803221A407B695B00F7
:1016E0009A4013003A6913433B617B683A691A6078
:1016F0007B68DB683B617B695B0003229A401300D7
:10170000DA433B6913403B613B689A687B695B0045
:101710009A4013003A6913433B617B683A69DA6087
:101720007B689B683B6101227B699A401300DB4325
:101730001A003B6913403B613B68DA687B699A4059
:1017400013003A6913433B617B683A699A607B688E
:10175000DB6A3B6101227B699A401300DB431A007C
:101760003B6913403B613B681A697B699A401300EF
:101770003A6913433B617B683A69DA623B685A68AD
:1017800080235B05134000D188E04C4A7B699B08AD
:1017900002339B009B583B617B69032213409B00F3
:1017A0000F229A401300DA433B6913403B617B6888
:1017B000434A93420DD07B68424A934207D07B68EC
:1017C000414A934201D1022304E0052302E00123B0
:1017D00000E000237A6903210A40920093401A0036
:1017E0003B6913433B6135497B699B0802339B008E
:1017F0003A695A50354B1B683B61FB68DA433B69D9
:1018000013403B613B685A6880235B02134003D05E
:101810003A69FB6813433B612C4B3A691A602B4BC6
:101820005B683B61FB68DA433B6913403B613B68A3
:101830005A6880239B02134003D03A69FB68134324
:101840003B61224B3A695A60204B9B683B61FB68C5
:10185000DA433B6913403B613B685A6880235B0372
:10186000134003D03A69FB6813433B61174B3A6955
:101870009A60164BDB683B61FB68DA433B691340B7
:101880003B613B685A6880239B03134003D03A694D
:10189000FB6813433B610D4B3A69DA607B690133A6
:1018A0007B613B681A687B69DA40131E00D08AE6C8
:1018B000C046C046BD4606B080BDC04600000140DF
:1018C00000080140000C01400010014000040140EC
:1018D00080B582B000AF78607B680A4A1A607B6886
:1018E0000F225A617B6800225A607B6800229A604E
:1018F0007B680122DA607B6800221A61C046BD461F
:1019000002B080BDFFFF000080B584B000AF7860FA
:101910000A00BB1C1A800F217B1800221A707B68FA
:101920001B69BA1C1288134003D07B1801221A705D
:1019300003E00F23FB1800221A700F23FB181B78FB
:101940001800BD4604B080BD80B582B000AF78609D
:101950007B681B699BB21800BD4602B080BD80B594
:1019600084B000AF78600A00BB1C1A800F217B187E
:1019700000221A707B685B69BA1C1288134003D07E
:101980007B1801221A7003E00F23FB1800221A7043
:101990000F23FB181B781800BD4604B080BD80B52E
:1019A00082B000AF78607B685B699BB21800BD466F
:1019B00002B080BD80B582B000AF78600A00BB1C69
:1019C0001A80BB1C1A887B689A61C046BD4602B06B
:1019D00080BD80B582B000AF78600A00BB1C1A8061
:1019E000BB1C1A887B689A62C046BD4602B080BDA7
:1019F00080B582B000AF786008001100BB1C021CEB
:101A00001A807B1C0A1C1A707B1C1B78002B04D0CC
:101A1000BB1C1A887B689A6103E0BB1C1A887B6830
:101A20009A62C046BD4602B080BD80B582B000AFAC
:101A300078600A00BB1C1A80BB1C1A887B685A613C
:101A4000C046BD4602B080BD80B582B000AF7860B0
:101A50000A00BB1C1A807B685A69BB1C1B885A4051
:101A60007B685A61C046BD4602B080BD80B584B077
:101A700000AF78600A00BB1C1A8080235B02FB6009
:101A8000BB1C1B88FA681343FB607B68FA68DA6149
:101A9000BB1C1A887B68DA617B68FA68DA617B684C
:101AA000DB69FB607B68DB69FB60C046BD4604B058
:101AB00080BD80B584B000AF0200FB1D1A70BB1D55
:101AC0000A1C1A70FB1D1B78FB601B4ABB1D1B7890
:101AD0009B08DBB202339B009B58BA1D127803218E
:101AE0000A4092000F2191400A00D2431248B91DCA
:101AF00009788908C9B21A408B1C9B001A500E4AFB
:101B0000BB1D1B789B08DBB202339B009A58BB1DA0
:101B10001B7803210B409B00F96899400B00064895
:101B2000B91D09788908C9B21A438B1C9B001A5049
:101B3000C046BD4604B080BD0000014080B586B0FF
:101B400000AF3A60FB1D021C1A70BB1D0A1C1A7004
:101B500000237B6100233B61FB1D1B78002B0DD014
:101B6000FB1D1B78012B07D0FB1D1B78022B01D11D
:101B7000244B04E0244B02E0244B00E0244BFB60A8
:101B8000BB1D1B78082213401CD0BB1D1B780722ED
:101B900013407B61FB685B6A3B617B699B000F22A2
:101BA0009A401300DA433B6913403B617B699B0019
:101BB0003A689A4013003A6913433B61FB683A69FB
:101BC0005A621BE0BB1D1B78072213407B61FB6838
:101BD0001B6A3B617B699B000F229A401300DA432A
:101BE0003B6913403B617B699B003A689A40130054
:101BF0003A6913433B61FB683A691A62C046BD46C5
:101C000006B080BD00100140001C0140000C0140E6
:101C10000008014080B584B000AF786039600023CF
:101C2000FB600B4B1B68FB603B68002B04D0FA6821
:101C30007B681343FB6004E07B68DA43FB68134076
:101C4000FB60034BFA681A60C046BD4604B080BD15
:101C50000000014080B584B000AF0200FB1D1A7087
:101C6000BB1D0A1C1A700023FB60FB1D1B78002B98
:101C70001ED1224B1B68FB60FB68214A1340FB60AE
:101C8000BB1D1B78112B05D1FB6880225203134327
:101C9000FB6009E0FB681B4A1340FB60BB1D1B781F
:101CA000DB03FA681343FB60144BFA681A6021E007
:101CB000FB1D1B78012B1DD1104B1B68FB60FB68C3
:101CC000114A1340FB60BB1D1B78102B05D1FB682C
:101CD000802212031343FB6009E0FB680B4A1340A8
:101CE000FB60BB1D1B78DB02FA681343FB60034BF0
:101CF000FA681A60C046BD4604B080BD00000140CD
:101D0000FFFFEFFFFF7FF8FFFFFFF7FFFF87FFFFFA
:101D1000002934D00123002210B488422CD301249E
:101D20002407A14204D2814202D209011B01F8E733
:101D3000E400A14204D2814202D249005B00F8E7EC
:101D4000884201D3401A1A434C08A04202D3001B18
:101D50005C0822438C08A04202D3001B9C0822434B
:101D6000CC08A04202D3001BDC082243002803D089
:101D70001B0901D00909E3E7100010BC704701B549
:101D8000002000F00BF802BD0029F8D003B5FFF7E2
:101D9000C1FF0EBC4243891A1847C0467047C0466F
:101DA00010B5010000230022002000F04DF810BD06
:101DB00070B50D4B0D4D5E1BB610AB4205D0002427
:101DC00008CD01349847A642FAD800F0EBF8084B4A
:101DD000084D5E1BB610AB4205D0002408CD01347F
:101DE0009847A642FAD870BD0C2000080C200008C5
:101DF000142000080C20000870B5074C074D641B28
:101E0000A41005D0013CA300EB589847002CF9D151
:101E100000F0CEF870BDC04618200008142000085D
:101E20007047C0467047C0467047C0467047C046BE
:101E30007047C0467047C046012070470120704778
:101E40007047C0467047C046F0B5D6464F46464636
:101E50009846244BC0B5060018689A460F00914674
:101E6000FFF7E8FF204B1D68002D32D053466C6809
:101E700018681F2C30DC002E0CD1631C0234A40027
:101E80006B606751FFF7DEFF0020E0BCBA46B14649
:101E9000A846F0BD49468822A300EB189950C421FA
:101EA00049008C46AC446146873AA2400968914695
:101EB0001143624611608421424649005A50022E65
:101EC000DBD129004A468D31FF310B6813430B608B
:101ED000D3E7064D1D60C9E7FFF7B4FF012040427C
:101EE000D3E7C04604000020B801002028000020ED
:101EF00010B5064C2378002B07D1054B002B02D0E0
:101F0000044800E000BF0123237010BDBC01002085
:101F100000000000A41F0008044B10B5002B03D0E4
:101F20000349044800E000BF10BDC04600000000A7
:101F3000C0010020A41F00080D4885460D480E4929
:101F40000E4A002302E0D458C4500433C4188C4213
:101F5000F9D30B4A0B4C002301E013600432A24278
:101F6000FBD3FEF771F9FFF723FFFEF7A9F8FEE7B1
:101F70000020002000000020080000201820000899
:101F800008000020D8010020FEE70000034B10B538
:101F9000002B02D00248FFF703FF10BD0000000035
:101FA000F91D0008F8B5C046F8BC08BC9E4670474D
:0C1FB000F8B5C046F8BC08BC9E4670475F
:101FBC0000000000000000000102030406070809ED
:101FCC0000000000010203040102030406070809D3
:101FDC0001020406080A0C102020202020202020BA
:101FEC00010002000400060008000A000C001000AA
:101FFC0020004000800000010001000100010001F0
:08200C008D1F0008191F0008D8
:04201400F11E0008B1
:08201800006CDC022000002036
:0400000508001F3997
:00000001FF
